:020000040000FA
:060000000201070223B318
:03002B000227EABF
:03004B0002281672
:030053000224265E
:030063000228323E
:03007B000227BB9E
:1000830002221FE5C754F84401F5C7790122000095
:100093000080FB120086B900030200F1E4792178A5
:1000A30008B800028004F709D8FCE479297802B87B
:1000B30000028004F709D8FCE4900281783F7908B4
:1000C3008002F0A3D8FCD9FA7ABF7B099001377874
:1000D300CD79038015E493A3AD82AE838A828B83AB
:1000E300F0A3AA82AB838D828E83D8E9D9E7758288
:1000F3002B7583A97403120119758291758300749A
:100103000012011975D00075817F75188175190268
:10011300759F00020096C09FF59FE473D09F22D085
:1001230083D082C09FE493C0E0740193C0E0740263
:1001330093F59F2201030507FFFE77881299324149
:10014300142425360D095049534345532D42543247
:10015300303005120A001400020A000201060302ED
:1001630030552A2A5049534345532D425432303097
:100173002A2A0000000000450400004B04024B4FF4
:1001830000000000000000000000000000FF00006D
:10019300B4000028002800283075A000A000A000AB
:1001A300A00000080008E001F0001000100010009B
:1001B30010001000100050005000500010001000FC
:1001C300D0070000000000000F000100050030759B
:1001D30007001000010081FF00000000FF550673B7
:1001E300065B06FF02020208025000A0000000E8BE
:1001F3000302628201000036820266820100006F00
:100203000A026C82010000DB0202668201000070B8
:100213000A026E82010000F102026682010000718F
:100223000A027082010000F302026682010000727A
:100233000A025C82080000F4020266820100007375
:100243000A025682010000740AFF0100FF200262C5
:10025300820100003382026682010000D80A024A4A
:10026300820000000000026A820300004103430C85
:10027300430C430C430C430C430C430C430C430C03
:10028300430C430C430C430CC50EDD0EBF0E0202A0
:1002930002020202020202010D00000010010262CA
:1002A300820100003982026682010000190B0242BA
:1002B3008201000068070266820100001A0B0240F7
:1002C30082010000A1810266820100001B0B023E35
:1002D3008201000085810266820100001C0B024638
:1002E30082010000A5800266820100001D0B02B698
:1002F3008101000093800266820100001E0B0254FC
:100303008201000081800266820100001F0B02440B
:1003130082010000B780026682010000200B023CCC
:10032300820100007781026682010000210B0248EE
:1003330082010000220B0A43686172616374657273
:100343006973746963203100164368617261637471
:10035300657269737469632032000A43686172616C
:100363006374657269737469632033000262820186
:1003730000003082026682010000C10B024E82033C
:1003830000007207026882010000C20B026682014C
:100393000000D30B0250820300008207026A82032B
:1003A30000009307026882010000D40B02668201F9
:1003B3000000E50B025282030000990702688201E4
:1003C3000000E60B01E803053F100AFFFFFF0001F1
:1003D3003075030201060000000000000000000069
:1003E300000000000000000000000000000000000A
:1003F3000000FFFF0600800CE8033132333435364A
:1004030012012234AA0312012248AA031201224A2A
:10041300AA031201224FAA0312012266AA031201A0
:100423002268BA011201226ABA011201227EBA01BC
:1004330012012258BC0112012268BD011201228D52
:10044300C301120122DBC401120122C3C50112013F
:100453002256C901120122D59903120122EC9903F4
:100463001201221D9A03120122589A0312012282B9
:100473009A03120122AC9A03120122C39A031201B6
:1004830022DA9A03120122F19A031201221A9B0320
:100493001201222D9B03120122439B0312012256B8
:1004A3009B031201227D9B0312012246F5011201D7
:1004B300224AF60112012282F601120122A5F60157
:1004C300120122B0F601120122D3F601120122E237
:1004D300F701120122B7F80112012232F9011201C8
:1004E30022BAF901120122F5F9011201222CFA01B3
:1004F300120122BAFA0112012293FB01120122F323
:10050300FB01120122FEFB011201227DFC011201FB
:100513002280FC0112012283FC0112012212FD013F
:1005230012012215FD0112012245FD011201226F64
:10053300FD011201225DFE011201220FFF011201D2
:10054300221CF00212012244F00212012272F00274
:10055300120122A9F00212012207F1021201225212
:10056300F1021201229DF102120122DDF1021201B8
:100573002223F20212012251F2021201220EF3028D
:1005830012012218F30212012225F302120122584A
:10059300F30212012224F40212012230F4021201A6
:1005A3002248F40212012252F402120122D2A503BC
:1005B300120122E0A503120122F8A5031201221061
:1005C300A60312012297C90112012243CA01120193
:1005D30022BECA01120122DFCB011201221BCC0170
:1005E300120122C4CC01120122ABCD011201220F50
:1005F300CF0112012266CF01120122E7CF011201BE
:1006030022D7D00112012224D101120122AAD10141
:10061300120122DCD101120122F0D3011201223294
:10062300D40112012250D401120122D3D4011201A8
:1006330022A7D5011201226FD6011201221FD9026E
:10064300120122F2D9021201229BDA02120122EED6
:10065300DA021201229EDB021201222ADC021201BB
:100663002216DD0212012245DD0212012258DE02AA
:10067300120122A0DE0212012275DF02120122B151
:10068300DF02120122CDDF02120122B0A9031201FF
:10069300221388031201222988031201224F88039F
:1006A3001201226B8903120122758903120122AA06
:1006B3008A03120122A28B03120122F5EA0212011C
:1006C3002225EC0212012258EC02120122A2EC02B2
:1006D30012012269EE0212012279AA01120122E318
:1006E300AA0112012242AC0112012252AC011201F1
:1006F300227FAC01120122D6AC011201227FAD018F
:1007030012012286AE0112012250AF01120122B062
:10071300B001120122F3B00112012298B1011201BA
:1007230022E5B1011201220BB20112012219B40117
:100733001201221EB40112012223B60112012270FA
:10074300B601120122E3B60112012216B70112010A
:1007530022B8B70112012261B80112012299B8012E
:100763001201229CB801120122E4B80112012224D1
:10077300B9011201227BB901120122009503120172
:100783002218950312012260950312012276950324
:10079300120122BD9503120122D196031201225E9A
:1007A3009703120122A99703120122942800120130
:1007B30022A02800120122DB280012012220290096
:1007C300120122E02900120122662A00120122925C
:1007D3002A00120122CB2A00120122092D00120144
:1007E30022ED2E00120122D3300012012216320014
:1007F300120122643400120122763500120122C153
:100803003600120122D13700120122EE3700120105
:10081300222938001201224B3800120122AE38007F
:100823001201226F3D00120122043E0012012255E3
:100833003E001201227C3E00120122CE3E00120134
:1008430022EC3E00120122463F00120122454000E5
:10085300120122C94000120122C2E502120122CC78
:10086300E5021201220FE6021201222AE602120118
:1008730022BAE602120122E2E6021201221FE70275
:1008830012012256E7021201227FE702120122F42B
:10089300E70212012209E8021201221EE8021201F4
:1008A300224FE80212012263E80212012288E802C1
:1008B300120122C2E802120122EEE80212012226EC
:1008C300E902120122D9E90212012204EA02120109
:1008D300222FEA0212012278EA02120122A2EA027C
:1008E300120122CDEA02120122CE7E001201222839
:1008F300A90212012256A902120122A4AA0212017C
:100903002284AB02120122A3AB0212012220AC0209
:1009130012012263AC02120122B9AD021201227A42
:10092300AE0212012201B102120122A2B10212018E
:100933002298B20212012295B302120122EFB402ED
:100943001201227AB50212012275A003120122DEDE
:10095300A00312012232A10312012259A1031201A1
:10096300228AA103120122D9F40212012246F502BE
:100973001201228DF502120122A5F602120122A113
:10098300F70212012284F80212012229C102120184
:10099300226BC1021201223DC20212012216C302BE
:1009A30012012210C402120122F2C4021201225BBC
:1009B300C50212012211C60212012285C6021201CA
:1009C30022F1C6021201221AC70212012294C7029F
:1009D3001201222DC80212012292C802120122A77B
:1009E300C802120122EDC80212012206C902120135
:1009F300226BC9021201226EC9021201220792035D
:100A03001201222F92031201226D92031201222B53
:100A13009303120122929303120122AE9303120154
:100A230022D6930312012206940312012215940382
:100A3300120122929403120122B894031201223E5E
:100A43006E001201221C70001201224E720012016C
:100A5300228A7200120122B77200120122A17300CE
:100A6300120122EC73001201223774001201224991
:100A73007400120122897400120122BE7400120153
:100A8300220C75001201223B75001201225E7500D3
:100A9300120122AB75001201223076001201224AA4
:100AA3007800120122897A00120122CA7A00120107
:100AB300226C7C00120122AD7C00120122207D00F9
:100AC300120122717D001201224C7E00120122814B
:100AD3007E00120122AC7E00120122139C0212013D
:100AE30022119D02120122AAA302120122CBA50206
:100AF30012012296A702120122FEA802120122303D
:100B03004100120122DF410012012225420012019D
:100B1300225B43001201228943001201221F450078
:100B2300120122994500120122B445001201222F1D
:100B33004600120122894700120122E948001201EE
:100B430022EF4900120122504B00120122694B008F
:100B5300120122C74B00120122B54C00120122E8F8
:100B63004C00120122584D00120122D24D001201F5
:100B7300221C4E00120122E64E00120122BB4F003E
:100B83001201229A500012012225510012012293D0
:100B930051001201220752001201223252001201A7
:100BA30022F1520012012256540012012273540002
:100BB300120122925400120122835500120122A82D
:100BC3005500120122D255001201224D5600120186
:100BD30022A75600120122105800120122BE58000B
:100BE300120122FF5800120122F4E60112012242EF
:100BF300E7011201224EE7011201222CE801120142
:100C0300225DE8011201228EE8011201220EE901A0
:100C13001201228CE901120122C4E90112012216F8
:100C2300EA0112012253EA0112012270EC011201BE
:100C33002296EE0112012281F0011201226BF201D0
:100C43001201228928001201227B8201120122ABA8
:100C53008201120122848901120122098B011201EE
:100C630022069101120122EE91011201222B92011F
:100C73001201224E92011201227F92011201228857
:100C83009201120122929201120122809301120118
:100C9300227694011201222F59001201222E5D00A7
:100CA300120122345D001201226F640012012288B6
:100CB3006900120122AC8B03120122A68C031201DC
:100CC300221A8D03120122588D03120122CC8D03A7
:100CD300120122458E031201224E8E031201225A63
:100CE3008E031201226F8E03120122AD8E031201B5
:100CF30022C38E0312012246F90212012253F90282
:100D03001201226DF902120122ACF902120122EA48
:100D1300F9021201224FFA0212012264FA021201AD
:100D2300226FFA021201227CFA0212012293FA02C2
:100D3300120122A1FA02120122ACFA02120122B814
:100D4300FA02120122C7FA02120122D2FA02120196
:100D530022F5FA021201229CFB02120122ACFB02D1
:100D6300120122C6FB02120122E3FB02120122FF3F
:100D7300FB0212012224FC021201222FFC021201A7
:100D83002244FC0212012258FC02120122B9FC0285
:100D9300120122BFFC02120122C5FC02120122CB66
:100DA300FC02120122E3FC0212012216FD021201CF
:100DB3002205800212012289800212012238810257
:100DC300120122978202120122B88402120122A484
:100DD3008502120122D98502120122FB850212012A
:100DE30022AA8602120122A28802120122CB8802C1
:100DF3001201225D89021201228F89021201229CB3
:100E03008902120122F38902120122198A021201B4
:100E130022868C02120122898D02120122E18D02A7
:100E230012012288D80112012292D90112012279DA
:100E3300DA0112012283DA01120122A5DA01120179
:100E430022B1DA011201224ADC0112012279DC010A
:100E530012012295DD01120122EEDD01120122545D
:100E6300DF0112012233E0011201228FE00112019E
:100E730022FCE00112012237E10112012276E10195
:100E83001201222FE40112012249E401120122D5A9
:100E9300E401120122E3E4011201223CE501120103
:100EA300224AE501120122BDE50112012221E601D8
:100EB3001201226BE601120122FBB5021201221D6F
:100EC300B60212012243B80212012258BB021201D8
:100ED3002270BC0212012223BD0212012205BE02AE
:100EE300120122499D031201226E9D03120122E089
:100EF3009D03120122A5D102120122AED1021201D9
:100F030022B7D1021201228ED2021201223FD40251
:100F130012012275D402120122AFD402120122E57A
:100F2300D4021201221FD50212012253D50212014B
:100F3300227FD502120122C8D50212012202D60253
:100F43001201224BD602120122A3D602120122D889
:100F5300D60212012233D7021201226DD7021201E7
:100F630022BED702120122F4D7021201222ED80286
:100F73001201225CD8021201227FD8021201225DE3
:100F8300A70312012289A703120122E4A703120176
:100F930022EEA703120122FEA703120122F38E03FE
:100FA300120122188F03120122428F03120122140D
:100FB300840312012259840312012276840312014D
:100FC30022568503120122A985031201228086037A
:100FD300120122DA87031201225FAB031201228E70
:100FE3009601120122E69801120122A29A0112012E
:100FF300228F9B011201221D9C011201229D9C0143
:10100300120122C29C01120122D39F011201224F1D
:10101300A0011201223EA10112012276A1011201B7
:1010230022B9A10112012265A301120122BAA3016F
:1010330012012207A40112012279A4011201229FA5
:10104300A401120122B9A401120122CEA5011201A9
:1010530022DEA50112012205A70112012227A70101
:101063001201225DA701120122E9A801120122281F
:10107300A90112012254AA01120122A9A6031201F5
:1010830022BAA60312012252A70312012216AB03AE
:1010930012012255AB03120122EAFF01120122A021
:1010A300A803120122B0A803120122C2A80312014D
:1010B3002228A903120122E9A2031201226DA3032C
:1010C300120122D3A303120122D0A103120122F29F
:1010D300A1031201225AA203120122AAA20312019E
:1010E30022A4AB03120122B7AB03120122BEAB034E
:1010F300120122C5AB03120122C9AB03120122D490
:10110300AB03120122D6AB03120122E6A4031201A0
:101113002208A50312012231A50312012249A503C6
:101123001201228BA50312012242E0021201224C7A
:10113300E0021201228CE002120122D5E002120128
:10114300220FE10212012269E10212012288E10267
:1011530012012291E102120122E2E1021201220BA9
:10116300E20212012215E20212012281E2021201BD
:10117300220FE30212012268E30212012296E30224
:1011830012012216E40212012259E40212012294EE
:10119300E402120122A6E402120122C5E4021201B2
:1011A30022CEE40212012296E502120122B7AA031B
:1011B300120122EE9E03120122439F03120122B168
:1011C3009F0312012221A00312012293FD021201A7
:1011D30022BDFD0212012292FE0212012286FF02AB
:1011E300120122ECA303120122D397031201220955
:1011F30098031201224298031201229B99031201C0
:101203002280FF0112012296FF01120122A0FF0199
:1012130012012292C9021201224FCA021201228A2A
:10122300CA02120122B2CA0212012214CB02120113
:101233002260CB02120122C4CB021201223ECC0255
:1012430012012240CD02120122F3CE0212012275B5
:10125300CF02120122DACF02120122F1CF021201D0
:1012630022FAD00212012238D10212012200800395
:10127300120122198003120122BD8003120122FDF3
:1012830080031201221681031201224981031201F4
:1012930022968103120122CA81031201220C8203C6
:1012A3001201222F8E02120122B891021201224052
:1012B3009302120122979302120122B693021201A2
:1012C30022349402120122D29502120122B696020E
:1012D300120122A09A02120122709B02120122081B
:1012E300A80312012257A8031201228F9B031201A4
:1012F30022459C031201226D9C03120122F09C03E0
:10130300120122159D03120122E77F00120122F030
:101313007F00120122DBAB0312012207AC03E0665C
:10132300701008A3E066700A08A3E066700408A3BF
:10133300E06622C3E7960809E7960809E7960809D5
:10134300E79622C3E09608A3E09608A3E09608A3D5
:10135300E09622C008C3E096F50808A3E096420889
:1013630008A3E096420808A3E09645087001D3D08D
:101373000822E9799EC608CAC608CBC608CCC6C3EC
:1013830070207996CACBCC7019798ECBCC70137937
:1013930086CC700EF9802ACA33CACB33CBCC33CC7C
:1013A300331930E7F2CCCBCA3350147004EA30E07F
:1013B3000DE4CA3ACACB3BCBCC3CCC500209C3E9BF
:1013C30013C6CC182313C6CB18C6CA18C6F92212E3
:1013D300141220F01430E72B74FFFCFBFA747F80A7
:1013E30022E4FCFBFA7480801AB48008BC00F2BBD0
:1013F30000EF800F50EBF9E4C39AFAE49BFBE49C03
:10140300FCE499C6CC18C6CB18C6CA18C6F922E4A0
:10141300C9C608CAC608CBC6D3330308CCC63392A1
:10142300F0C3947F402E94184019C9B90704CACB5E
:10143300CC225025C309CA33CACB33CBCC33CC33EC
:10144300D9F422F4600DC9CCC313CB13CBCA13CA8E
:10145300D9F6CC22E4FCFBFA2214FCFBFA22E626A2
:1014630018461846184622E72719471947194722ED
:10147300181818E60846087009E626087005E633CA
:10148300F4220822191919E70947097009E72709FE
:101493007005E733F4220922E6084608C313460819
:1014A300336002E633F422E7094709C313470933DC
:1014B3006002E733F4220012149B604F1214AA60F7
:1014C30012E7548066F6121473701112146A703B9B
:1014D300090909F4F618F618F618F622121487709B
:1014E3001512146108080860EAE6447FF61876804E
:1014F30018E4F618F622121461601612146A7012B8
:10150300E4F608F608F608E65480F60909091818FF
:101513001822EAC0E0EBC0E0ECC0E0EDC0E0E687F3
:10152300F0A4FBACF008E687F0A42CFCE435F0FA59
:101533001809E687F0A42C4B60027401CA35F0FC4D
:10154300E433FB09E687F0D2F7A42CCB35F0FC1982
:1015530008E687F0A42BCC35F0FBE433FD0819E64D
:1015630087F0D2E7A42C4ACB35F0CD3400FC09E652
:1015730087F0D2E7A42DCC35F0FDE433FA0918E661
:1015830087F0D2F7A42CCD35F0CA3400FC08E687E7
:10159300F0D2E7D2F7A42ACC35F07A7E20E70B0A03
:1015A300CB33CBCD33CDCC33CC33CB3350147004CE
:1015B300ED30E00ED2F1E4CD3DCDCC3CCC3B50053B
:1015C300DA05C2F1EB547FC63308E63392F0FBE74A
:1015D3003309E733C39A502D2B70190C0D4C4D7002
:1015E300151806E608C333700D20F10AA2F013F6AE
:1015F300E418800B4024E4F630F002768018F618E5
:10160300F618F68024D33B14501074FFA2F013F69F
:10161300187680E418F618F6800FA2F013F618E691
:101623003303F618ECF618EDF6D0E0FDD0E0FCD06D
:10163300E0FBD0E0FA22080808EAC0E0EBC0E0864D
:10164300F0E7A4FA180986F0E7A42AFA180986F045
:10165300E7A42AFA180986F0E7A42AFA1986F0E71C
:10166300A4FBE5F02AFA190886F0E7A42BFBE5F0C2
:101673003AFA190886F0E7A42BFBE5F03AFA1818B2
:101683000986F0E7A4C5F02BFBE43AFA1908E7C58D
:10169300F0C6A426F6E5F03BFBE43AFA1886F0E739
:1016A300A4F6E5F00826F6E43B08F6E43A08F6D09B
:1016B300E0FBD0E0FA226016080808C6C313C61878
:1016C300C613C618C613C618C613C6D5E0EA2270D9
:1016D30009080808226016181818C6C333C608C6B6
:1016E30033C608C633C608C633C6D5E0EA22E627A2
:1016F300F60809E637F60809E637F60809E637F685
:1017030022E026F608A3E036F608A3E036F608A39F
:10171300E036F622E026F008A3E036F008A3E03630
:10172300F008A3E036F022C3E697F60809E697F639
:101733000809E697F60809E697F622C3E096F0084B
:10174300A3E096F008A3E096F008A3E096F022E663
:1017530057F60809E657F60809E657F60809E65763
:10176300F622E056F608A3E056F608A3E056F6087C
:10177300A3E056F622E056F008A3E056F008A3E0F3
:1017830056F008A3E056F022E0F608A3E0F608A31B
:10179300E0F608A3E0F622E6F008A3E6F008A3E6E5
:1017A300F008A3E6F022E0FAA3E0FBA3E0FCA3E049
:1017B300FD22EAF0A3EBF0A3ECF0A3EDF022E0F8B6
:1017C300A3E0F9A3E0FAA3E0FB22E8F0A3E9F0A386
:1017D300EAF0A3EBF022CAC0E0E6F0A308DAFAD0FD
:1017E300E0FA22CAC0E0E0A3C582CCC582C583CD9E
:1017F300C583F0A3C582CCC582C583CDC583DAE694
:10180300D0E0CA22C3E498F8E499F9121848802674
:10181300C3E49AFAE49BFBE920E7E9121848E49849
:10182300F8E499F922C3E498F8E499F9121848E422
:1018330098F8E499F9C3E49AFAE49BFB22EB20E7D6
:10184300CFE920E7E0B90010BB0008E88AF084F88C
:10185300AAF022E4FBC8FA22EB70227B10C833C83B
:10186300C933C9335007C39AC3DBF280069A5001C8
:101873002ADBEAC833F4C8C933F4C9FA2275F0087D
:10188300E4C833C8C933C933C99AC99B5004C92AA8
:10189300C93BD5F0ECFBC833F4C8E4C9FA22600DA8
:1018A30008C6A2E713C618C613C6D5E0F322600C18
:1018B30008C6C313C618C613C6D5E0F422700422A3
:1018C300600D18C6C333C608C633C6D5E0F4182264
:1018D300251810AF08F518400C15198008F51840A5
:1018E300021519D2AF2200C0D0251810AF08F51881
:1018F300500C05198008F51850020519D2AFD0D045
:10190300222518F58210AF08F518400C1519800828
:10191300F51840021519D2AF851983222518F582CF
:10192300E43519F583222518F8E43519F922251829
:10193300FAE43519FB222518FCE43519FD22E4737A
:101943002518C582C0E0E51934FFC583C0E0E5185A
:10195300C3958224F810AF088583198582188008FF
:10196300858319858218D2AFCEF0A3E520F0A37842
:1019730008E608F0A3DEFAEFF0A3E58124FAF8E61F
:1019830008F0A3E608F0A3E608F0A30808E608F0C9
:10199300A3E608F0A315811581D0E0FED0E0F81589
:1019A3008115811581E8C0E0EEC0E0222518C582CB
:1019B300C0E0E51934FFC583C0E0E518C395822470
:1019C300F910AF08858319858218800885831985E6
:1019D3008218D2AFCEF0A3E520F0A37808E608F092
:1019E300A3DEFAEFF0A3E58124FBF8E608F0A3E613
:1019F30008F0A30808E608F0A3E608F0A31581158C
:101A030081D0E0FED0E0F815811581E8C0E0EEC09A
:101A1300E022851983851882E0A3FEE0A3F52078F0
:101A230008E0A3F608DFFAE0A3FFE0A3C0E0E0A329
:101A3300C0E0E0A3C0E0E0A3C0E0E0A3C0E010AFDB
:101A4300088582188583198008858218858319D2B1
:101A5300AFD083D08202011F851983851882E0A34A
:101A6300FEE0A3F5207808E0A3F608DFFAE0A3FF81
:101A7300E0A3C0E0E0A3C0E0E0A3C0E0E0A3C0E0D7
:101A830010AF08858218858319800885821885839D
:101A930019D2AFD083D08222C0D02518C582C0E02E
:101AA300E51934FFC583C0E0E518C3958224F3101C
:101AB300AF08858319858218800885831985821864
:101AC300D2AFC8F0A3E9F0A3EAF0A3EBF0A379083F
:101AD300E709F0A3D8FAECF0A3EDF0A3EEF0A3EF3F
:101AE300F0A3D0E0F0A3D0E0F0A3D0E0F0A3E52092
:101AF300F0A3E5F0F0A322851983851882E0C0E006
:101B0300A3E0F9A3E0FAA3E0FBA37808E0F608A3B7
:101B1300DFFAE0FCA3E0FDA3E0FEA3E0FFA3E0C047
:101B2300E0A3E0C0E0A3E0F5D0A3E0F520A3E0A3A9
:101B3300F5F010AF0885831985821880088583190D
:101B4300858218D2AFD082D083D0E0F8D0E032744F
:101B5300048006740280027401C0E0F404121904C4
:101B6300D0E01217D9227404800474028000CCC020
:101B7300E0EDC0E0E518C39CCCAD1950011D10AFDA
:101B8300068C188D1980068C188D19D2AF1217E6A2
:101B9300D0E0FDD0E0FC22D083D082E9C0E0E49322
:101BA300A3C386F0C5F095F0F908E493A386F0C5C6
:101BB300F095F0700BE493A3C3994005E904800208
:101BC300A3E475F002A42582F582E5F03583F5835D
:101BD300D0E0F9E493A3C0E0E493C0E022D083D043
:101BE30082ECC0E0EDC0E0E493A3FCE493A3FDED3D
:101BF3004C600D121C2CEC24FFFCED34FFFD80EF38
:101C0300E493A3FCE493A3FDED4C600D121C6BEC79
:101C130024FFFCED34FFFD80EFD0E0FDD0E0FCE4D9
:101C230093A3C0E0E493C0E022C0E0C3E49396082A
:101C33007401939618400FE4936670080874019337
:101C4300661870007019A3A3C3E4939608740193F4
:101C53009618A3A3400DD0E0D0E0D0E0021C1CA353
:101C6300A3A3A3A3A3D0E022C0E0C0F088F0E49331
:101C73006670080874019366187000A8F0A3A37037
:101C83000BD0F0D0E0D0E0D0E0021C1CA3A3D0F036
:031C9300D0E0227C
:101C980074F51219AFEAFEEBFFEE2434F8EF3400C6
:101CA800F988088909EE2435F582EF3400F583E0D8
:101CB800F8EE2437F582EF3400F583E0F50AEC8579
:101CC8000AF0A4FCAAF0850AF0EDA42AFDE82CF895
:101CD800E43DF97A257B00121848EA8508828509CF
:101CE80083F0F8740758F97401B900028004C3330B
:101CF800D9FCFAE8131313541FF8EE28F8EF340050
:101D0800F9E8245DF582E93400F583E05A6008EECD
:101D18002434F582EF802CEE2434F582EF3400F57C
:101D280083E0C0E0EE2436F582EF3400F583E0F579
:101D3800F0D0E084A8F0EE28F8EF3400F9E8243871
:101D4800F582E93400F583E0F97F04021A5B74F543
:101D58001219AFEAFEEBFFEE2434F582EF3400F5FA
:101D680083E0C0E0EE2435F582EF3400F583D0E05F
:101D7800F08E828F83A3A3A3A3A3A3A3C082C0834F
:101D88008E828F83A3A3A3A3A3E0F8A3E0F9D08353
:101D9800D082E0C398F508A3E099F509EE247FF511
:101DA80082EF3400F583E064017069EE2480F582E7
:101DB800EF3400F583E0F8A3E0F98E828F83A3A3C4
:101DC800A3A3A3A3A3E0FCA3E0FD8E828F83A3A318
:101DD800A3A3A3E0FAA3E0FBC3EA9CEB9D5010C3C6
:101DE800EC98ED99402EC3EA98EB995027800EC3E2
:101DF800EA98EB994007C3EC98ED9940177C047D6D
:101E080005EEFAEFFB120B9BEE247FF582EF340010
:101E1800F583E4F0EE2434F8EF3400F9E8FCE9FD4A
:101E2800EE2435F582EF3400F583E0F8EE2437F53B
:101E380082EF3400F583E0F50AE508850AF0A4F599
:101E480008AAF0850AF0E509A42AF509E82508F8A2
:101E5800E43509F97A257B00121848EA8C828D83CB
:101E6800F0F8740758F97401B900028004C333D933
:101E7800FCFAE8131313541FF8EE28F8EF3400F9AE
:101E8800E8245DF582E93400F583E05A6008EE2421
:101E980034F582EF802CEE2434F582EF3400F5839C
:101EA800E0C0E0EE2436F582EF3400F583E0F5F08B
:101EB800D0E084A8F0EE28F8EF3400F9E82438F5EB
:101EC80082E93400F583E0F91227AD021D51C08282
:101ED800C083851882851983E0F8A3E0F9C3EA9CDA
:101EE800EB9D5010C3EC98ED99401BC3EA98EB9911
:101EF8005014800EC3EA98EB994007C3EC98ED990B
:101F08004004790180027900D083D08222EAC39C00
:101F1800FAEB9DFB2274EF1219AF9003CAE0640834
:101F28006005E06407702A9061C8E060249003F8B7
:101F3800E0F4601DE0F875F003A4C8AAF02AF9746B
:101F4800FA28FE740339FF8E828F83A3A3A3E0705F
:101F58000302204D906060E0C0E0EE2468F582EF57
:101F68003400F583D0E0F0750C6D750D057508002B
:101F7800750900E5D914F50AE5D95403F50E60177B
:101F88007403650E605CE50A6010EE2467F582EF65
:101F98003400F583E07003022032900568E06401A4
:101FA800602AEE2482F582EF3400F583E06004783D
:101FB8000480027800850A08E508C398FA95E0FBD2
:101FC800120A518A088B09EA45097005120D938097
:101FD80074EE2482F582EF3400F583E070048A0CF5
:101FE8008B0DE50A6012850C82850D83F50BE5D90A
:101FF800F0A3150BE50B70F6EE2482F582EF3400A2
:10200800F583E0604474FC250AF50A780C121B5627
:10201800AC0AA90EEEFAEFFB120C3D74021218E995
:10202800E97026AA08AB091211B9793D8E828F830F
:10203800A3A3A3A3E0FA7B00120925EEFAEFFB1293
:102048000BB3120C4F790080747403650E605685CB
:102058000A107511007810121B56AC0CAD0DAA08A9
:10206800AB09120C1974021218E9EE2468F582EF14
:102078003400F583E064807004747F8001E0F50C1F
:10208800780C121B5AE50EF50C780C121B5AA90A8B
:10209800AC08AD099003F8E0FA7B001208E9740275
:1020A8001218E980139003CAE06408600BAC0CAD09
:1020B8000DEEFAEFFB120CA9120D9F79017F0A02AF
:1020C8001A5B74F51219AF74FC1218D3EAFEEBFF11
:1020D8008908A2AFE433F509C2AF806AEE2463F839
:1020E800EF3400F97A007B00A2AFE433F50AC2AFFF
:1020F80088828983E0FCA3E0FDEC4D603A88828900
:1021080083E0FAA3E0FB8A828B83E0FCA3E0FD88EE
:10211800828983ECF0A3EDF08A828B83E4F0A3F04C
:1021280088828983E0FCA3E0FDEC4D700A888289EF
:1021380083A3A3E4F0A3F0E50AA2E092AF1211B9D9
:1021480090050BE004F0EE2463F582EF3400F5838C
:10215800E0F8A3E0F9E849603DEE2463F582EF3446
:1021680000F583E02402FAA3E03400FBEA2402F538
:102178000AEB3400F50B780A121B568A828B83E02F
:10218800FCA3E0F9EEFAEFFB120BD774021218E980
:10219800E970030220E490050BE0606390050CE011
:1021A800F890050BE0C398500C74026508705090C5
:1021B800050DE0604A8E828F83A3A3A3A3E0851850
:1021C80082851983F0A3E4F090050BE0F8740212FD
:1021D800191FE8F0A3E4F090050BE0F890050AE079
:1021E80028F0740212191FAC82AD838518828519F4
:1021F80083AA82AB8379011208F590050BE4F0E518
:1022080009A2E092AF74041218E9021D51000000FF
:102218008521878522C622C0E0C0D0E8C0E0E9C099
:10222800E0EAC0E0EBC0E0ECC0E0EDC0E0EEC0E00A
:10223800C008C009C00AC00BC082C083C0F0A2AFEA
:10224800E433FEC2AF759B00906182E0A2E05012B9
:10225800E591A2E0500C7591FE740165217003129E
:102268001F1DE0A2E55051E591A2E5504B7591DFA5
:102278009003CAE064076005E06408702374016590
:1022880021703579019003F8E0FA75F003A4CAA823
:10229800F028FB74FA2AFA74033BFB1220CA801850
:1022A800E0640D70139003ECE004F064287002E41D
:1022B800F07A00E0F9120DA5906182E0A2E64003F1
:1022C800022366E591A2E640030223667591BF905A
:1022D80003CAE064057008120CD3120CDF800312E5
:1022E8000CD9752100120D33E99003CBF079001257
:1022F8000D27120B0B7A017B009003C9E0F912112C
:1023080083907803E06442705590056CE014F07097
:102318004DC2AF12231E00782AD0E0F618D0E0F69E
:10232800E59F540770057509FF800375097FC4C0D0
:10233800E07829E6F50808E65509F509740B7808E8
:102348001218B1D0E02508F8906270E0A2E740F8D2
:10235800E8C333906272F0906270E0D2E0F090616E
:1023680081E0A2E35009E5E9A2E3500375E9F7A388
:10237800E0A2E75009E591A2E7500375917FEEA22C
:10238800E092AFD0F0D083D082D00BD00AD009D061
:1023980008D0E0FED0E0FDD0E0FCD0E0FBD0E0FAD1
:1023A800D0E0F9D0E0F8D0D0D0E032C0E0C0D0C062
:1023B80082C083906183E0A2E05009E5BFA2E050AB
:1023C8000375BFFEE0A2E15009E5BFA2E150037525
:1023D800BFFDE0A2E25009E5BFA2E2500375BFFBD2
:1023E800E0A2E35009E5BFA2E3500375BFF7E0A2FE
:1023F800E45009E5BFA2E4500375BFEFE0A2E55041
:1024080009E5BFA2E5500375BFDFE0A2E65009E584
:10241800BFA2E6500375BFBFD083D0828088C0E0DA
:10242800C0D0E8C0E0E9C0E0EAC0E0EBC0E0ECC042
:10243800E0EDC0E0C0F0E5A7A2E6500FE5A1A2E6F6
:10244800500953A7BF75A1BF12248BE5A7A2E55079
:102458000CE5A1A2E5500653A7DF75A1DFE5A7A209
:10246800E15009E5A1A2E1500375A1FDE5A7A2E2AB
:10247800500CE5A1A2E2500653A7FB75A1FBD0F0D2
:1024880002239C74F81219AF7521019003CAE06405
:10249800067015120C6D8A828B83A3A3A3A3A3A332
:1024A800E0FAA3E0FB120CC1A2AFE433FED2AF9076
:1024B80003D0E0640170187A207B009003C9E0F92A
:1024C8001212917A207B009003C9E0F912118990C9
:1024D8006182E0D2E6F0900569E0602185C622803D
:1024E800169003CFE064017008E5C654F84405F57A
:1024F800C653BEFC1222187401652160E4EEA2E006
:1025080092AF7F01021A5B008E238F248582288573
:102518008327851882851983E0CEA3E0CF8528829A
:10252800852783EBC9EAC8EDCBECCA75F010C3E880
:1025380033C8E933C9EA33CAEB33CBC3EA9EF5267D
:10254800EB9FF525B35004AB25AA26EC33CCED332D
:10255800CDD5F0DAAE23AF242274ED1219AF8A0874
:102568008B098C0A8D0B741312191F780C12178B98
:102578007808790C1213367510017511C875120098
:1025880075130050127808790C12172A78107908F8
:1025980012133650168010780C790812172A781002
:1025A800790C12133640047901800279007F0C02FD
:1025B8001A5B74ED1219AF8A088B098C0A8D0B749B
:1025C8001312191F780C12178B780C79081213360E
:1025D80040117808790C12172AAA08AB09AC0AAD81
:1025E8000B802275100075110075120075130178A3
:1025F80010790C12172A781079081216F1AA10AB64
:1026080011AC12AD1380A68A828B837508FF7509F9
:10261800FF750AFF750B0078081217787F04021AF5
:102628005B74F51219AF8C828D83780812178B8A28
:10263800828B83780812173EEA2404F8EB3400F9F9
:102648008C828D83A3A3A3A3E0FCA3E0FD888289E9
:1026580083C3E09CF0A3E09DF088828983C3E09463
:1026680020A3E0944E40268A828B837508FF750963
:10267800FF750AFF750BFF78081217178A828B837C
:10268800A3A3A3A3E02420F0A3E0344EF002260F76
:1026980074F51219AFE9FE90051FE0FAA3E0FBEE0E
:1026A800C333F8E433F9742928F582748139F58342
:1026B800E02AF508A3E03BF5097808121B567A4092
:1026C8007B427C0F7D0012251074021218E98A08DB
:1026D8008B098C0A8D0B741078081216B9AA08ABEE
:1026E800097F04021A5B74F11219AF8A0C8B0D8CE6
:1026F8000E8D0F740F12191FE0FAA3E0FB7411126C
:10270800191FE0F508A3E0F5097808121B56EA241A
:1027180001F508EB3400F509E4F50AF50B780C79B6
:1027280008121639750871750902780C790812169D
:1027380039AA0CAB0DAC0EAD0F122510740212188D
:10274800E98B09EA450960047A0180027A00EC2ADB
:10275800FCED3400FD741312191FE0F8A3E0F9E84A
:10276800FEE9FFECF8EDF97A717B02121848880847
:1027780089098E828F83780812179AECF8EDF97A16
:10278800717B021218488A088B0974057808121898
:10279800C08E828F83A3A3A3A3E508F0A3E509F065
:1027A8007F08021A5BC082C083E9906000F0D08382
:1027B800D08222C0E074F2121A9BA2AFE433FED298
:1027C800AFE58AA2E44006E58AA2E650031210DBD0
:1027D800758A00758A00C2EBEEA2E092AF7F010213
:1027E8001AFAC0E0C0D0E8C0E0E9C0E0A9A8D2AFBA
:1027F800C2C7E9A2E7E433F8E9A2E792AFD0E0F96B
:10280800D0E0F8D0D0D0E032C2AF02000022C0E061
:10281800C0D0E8C0E0A8AFE8A2E0500375E200F439
:10282800F5AFD0E0F8D0D0D0E032C0E0C0D0E8C0FA
:10283800E0E9C0E0EAC0E0EBC0E0C082C083C2C407
:10284800C2DB43EB109009BDE0F8A3E0F9E82401EE
:10285800FAE439FB9009BDEAF0A3EBF0C3E894D1A0
:10286800E9940740079009BDE4F0A3F0D083D08233
:10287800D0E0FBD0E0FAD0E0F9D0E0F8D0D0D0E05A
:102888003202011FFFFFFFFFFFFFFFFFC082C0836F
:10289800E9900AD7F0022ABE74F7121943E99003A7
:1028A80009F07C417D037AFF7BFF12083590030A0B
:1028B80074FFF0A3F0A3E4F0A3F079051207C39026
:1028C8000309E0F91206E57A4D7B08120A037F0135
:1028D800021A1574F41219438A088B09EB548060A4
:1028E80030900309E0F912116B8A0A8B0BAE0AAF1C
:1028F8000BEE4F60138E828F83E064B07003120773
:10290800D5EEFAEFFB121159AA08E5096480FB809D
:10291800047A007B00022A8D74F212194374FC12A7
:1029280018D3EAFEEBFFEE4F6038740212191FEE5F
:10293800F0A3EF122CF2ECF0A3ED122CF2AA82AB6A
:10294800831206DFE9F5087073741212191F123822
:10295800A6E50A450B60658E828F831229CEEE4F5D
:10296800700575080280557A067B001211F58A0CED
:102978008B0DA80CA90DE8497005750813803D88D2
:10298800828983E41229D8A3A3EEF0A3EF123D3F76
:10299800E50AF0A3E50BF090030F122A6090030FED
:1029A8006017E0FCA3E08003EAFCEBFD8C828D83DA
:1029B800122A6070F38C828D831237CBA9087404B5
:1029C8001218E9023F41A3A3A3A3E0FEA3E0FF225C
:1029D800F0A3F0888289832274F2121943890AE9E4
:1029E80075F017A4FEAFF090030EE4F090030C12FC
:1029F8002A60600A1211FB90030CE4F0A3F0EEFACF
:102A0800EFFB1211F58A088B09EA4509602FEEFCE5
:102A1800EFFD790012114790030CE508F0A3E509D2
:102A2800F07B008008122A4AE4F0A3F00BEBC39570
:102A38000A40F2E50A90030EF07900800279130249
:102A48003F41EB75F017A4F8A9F090030CE028FAC1
:102A5800A3E0398A82F58322123561EA4B2274F4A5
:102A68001219437900EAA2E0501B7508CA7509815A
:102A78007808121B567C047D007AD97B0A1207BDA0
:102A880074021218E97F04021A15C082C0839003E9
:102A98000F122AC5601C88828983A3A3E06A700389
:102AA800A3E06B8882898370E8A3A3A3A312355D92
:102AB80080047A007B00D083D08202011F12401468
:102AC800E8492274EE12194374FC1218D3EAFEEB9B
:102AD800FF851882851983E4F0A3F0EE24021237EB
:102AE800AFEE2405122CE0EE2404F50EEF1230C5EB
:102AF800E024FE603924FC604624FE605224FE6017
:102B08005E24FE7003022BE524FE7003022C5D2474
:102B1800FE7003022C6C24FE7003022C7B24FC70D4
:102B280003022C8A24FE7003022C99022CD69003EF
:102B3800287417F0A3E4122CFA12045D022CD6852F
:102B48001882851983AC82AD831207DB022CA68517
:102B58001882851983AC82AD831207E1022CA68501
:102B68000C08850D09740212191FAC82AD83850803
:102B78008285098312355D1207038A0C8B0DAC0C14
:102B8800AD0DEC4D6042E4F50CF50D780C121B56BA
:102B9800750C28750D03780C121B56750C29750DCC
:102BA80003780C121B56740812191F121B6D791624
:102BB80012355712081D74081218E9E9F50C700B44
:102BC800123553120475800F750C0185088285092A
:102BD80083122CE81237CB850C08022CA974021238
:102BE800191FAC82AD83850C82850D8312355D1269
:102BF80007038A108B11AC10AD11EC4D6043850CA6
:102C080082850D83A3A3121B6D7510287511037897
:102C180010121B567510297511037810121B567463
:102C28000812191F121B6D791612355712081D74D8
:102C3800081218E9E9F509700B12355312047B8064
:102C48000F750901850C82850D83122CE81237CB8C
:102C5800850908804C851882851983AC82AD83125A
:102C680007E7803A851882851983AC82AD831207FD
:102C7800ED802B851882851983AC82AD831207F30A
:102C8800801C851882851983AC82AD831207F98070
:102C98000D851882851983AC82AD831207FFE9F58B
:102CA80008E50860298E828F83A3E06414601F857D
:102CB8000E82850F83E0900328122CF212401090A8
:102CC80003291237CBE508A3122CFA120457EEFA9F
:102CD800EFFB1207810236B7F50CEF3400F50D2231
:102CE80012401485188285198322F0851882851967
:102CF8008322F07C287D03850A82850B8312356147
:102D08002274EE12194374FC1218D38A0A8B0B8CA6
:102D18000E8D0FEA2405F508EB3400F5097C157DC6
:102D28000079007A287B03121147E5082402F50C84
:102D3800E509122CE385188285198385821085831D
:102D4800117810121B56850882850983A3A3A3A3B3
:102D580012320D121B56E5082405F510E50934005A
:102D6800F5117810121B56850C82850D8312356774
:102D78001206FD74061218E98A108B11AE10AF11F5
:102D8800E50A2402F50AE50B1237B2EE4F7003028A
:102D98002ECF8017740212191F12355D888289831D
:102DA800EAF0A3EBF0900328E004F0900328E0C3D6
:102DB80094054003022ECFE4F510F5117810121B8C
:102DC800567510117511037810121B56751012756F
:102DD80011037810121B56740612191F121B6D79F5
:102DE80010EEFCEFFD12355712081D74081218E991
:102DF800E9705E850882850983A3A3A3A3A3A3A37F
:102E0800E0F8900311E068704812320D121B567CEE
:102E1800127D03E5082408FAE5093400FB12114184
:102E280074021218E9E960298E828F83A3A3A3A3F1
:102E380012355D900328E0F510740278101218C05E
:102E480074292510F58274033511F583EAF0A3EB94
:102E5800F0740212191F8582108583117810121BD5
:102E680056740212191F121B6D850C82850D831270
:102E7800402512070974041218E98A108B11AE1044
:102E8800AF11900328E0F510751100740278101244
:102E980018C074282510F874033511F988828983BD
:102EA800A3122A607003022D93E82403F8E9340082
:102EB800F9EE4F6003022D9C8882898374FFF0A38A
:102EC800F0900328E004F0900328E0600A123553DC
:102ED8001204697900800B8508828509831237C23C
:102EE800790A0236B774EA12194374FE1218D38CA1
:102EF800128D13EA2405F50CEB12402F1229D27516
:102F08000800750900EA2402F510EB3400F5118574
:102F1800188285198385820A85830B780A121B56C5
:102F2800850C82850D83A3A3A3A31230CF121B5651
:102F3800E50C2405F50AE50D1237B2780A121B567E
:102F4800850C82850D831240231206FD7406121823
:102F5800E98A0A8B0BEA450B7003023080EA2404E5
:102F6800F50EEB1230C51229D28A828B83A3A3A354
:102F7800E0F985108285118312355D1206EBE9F5BB
:102F8800096003023080E4F514F5157814121B5615
:102F98007514117515037814121B567514127515CE
:102FA800037814121B56740612191F121B6D79131D
:102FB800AC0AAD0B85108285118312355D12081D90
:102FC80074081218E9E9F5096003023080900311CA
:102FD800E0F8E5087009E02402900329F0801790D2
:102FE8000329E0FCE82402FAE43400FBEA6C7001EF
:102FF800EB6003023084850882AA8212320494149A
:103008001231FC5073850E82850F83E0C0E0742A6C
:103018002A1230BCD0E0F00508850E82850F83A304
:10302800E0C0E085080A742A250A1230BCD0E0F016
:1030380005089003111230CF121B567C127D0385B0
:10304800080A742A250AFA74033400FB12112F7433
:10305800021218E9900311E02508F50874FF6E7054
:103068000374FF6F6012EE24010EEF3400FFE508D1
:10307800C394145003022F17E508601312344885CF
:10308800108285118312355D12046F79008014E572
:1030980009700375090A851282851383EEF0A3EF80
:1030A800F0A90974021218E97F0E021A1585080C96
:1030B800742A250CF58274033400F583223400F554
:1030C8000F850E82F58322123D522274EE121943A7
:1030D80074FE1218D38C0E8D0FEA2405F50CEB1232
:1030E8002CE3750B00900328E4F0F50AEA2402F5B6
:1030F80008EB3400F5098049900328E0FA900311A1
:10310800E0F812320494171231FC400D900328E0C5
:10311800F87416C398900311F012320D121B567CE6
:10312800127D0374292AFA74033400FB12112F74D8
:10313800021218E9900311E0F8900328E028F0053E
:103148000AE50C2416F582E50D1230C0E0F8E50A10
:10315800C39840030231E5900328E0C39416507DDC
:10316800E50AC333F8E433F9E50C28FEE50D39FF29
:10317800851882851983AC82AD838E828F83123540
:103188005D1207038A108B11AC10AD11EC4D700560
:10319800750B018043E4F510F5117810121B567574
:1031A80010117511037810121B5675101275110342
:1031B8007810121B56740612191F121B6D7916858A
:1031C800088285098312355D12081D74081218E9F2
:1031D800E9F50B70030231001237BE80107C287DA0
:1031E8000385088285098312355D120481A90B7451
:1031F800020236B9E99400C365D03322EA28F8E41C
:103208003400F9E822E0F51075110078102274EA0C
:1032180012194374FC1218D38A0C8B0D8C128D135F
:10322800EA2405F50AEB1237B2750800750900E5BE
:103238000A2402F510E50B3400F511740212191F67
:1032480085820E85830F780E121B56850A82850BA0
:1032580083A3A3A3A3123CFE121B56E50A2405F57B
:103268000EE50B3400F50F780E121B56851082857B
:1032780011831237B81235571206FD74061218E971
:103288008A0E8B0FAE0EAF0FE50C2402F50EE50D7E
:103298003400F50F80408882898374FFF005081296
:1032A80030B574FFF00508900311E0F50C750D00BA
:1032B800780C121B567C127D0385080C742A250C89
:1032C800FA74033400FB12112F74021218E99003E8
:1032D80011E02508F508EE4F60718E828F83A3A355
:1032E800A3E0F9850E82850F8312355D1206EBE99E
:1032F800F509EE2404122CE0E97044E4F514F51500
:103308007814121B567514117515037814121B5670
:103318007514127515037814121B56740812191FA8
:10332800121B6D7911EEFCEFFD850E82850F83125D
:10333800355D12081D74081218E9E9F5096027853A
:103348000C82850D8312343E1237CBE508700302D8
:103358003424123448850E82850F8312355D120499
:10336800877900023439850882AA82EA90031170AD
:1033780009E02404900329F08022E0F8900329E072
:10338800F514E82404FCE43400FDEC65147001ED48
:1033980070C012320494121231FC50B6850C82852A
:1033A8000D83E0C0E0742A2A1230BCD0E0F0050892
:1033B800850C82850D83A3E0C0E01230B5D0E01201
:1033C800345A85820C85830D780C121B56740412AE
:1033D800191F121B6D851082851183124025120753
:1033E8000974041218E98A0C8B0DAE0CAF0D850810
:1033F8000C742A250CF874033400F9EE4F7003029C
:10340800329E851882851983E08882898312345A0E
:10341800A3E0C0E01230B5D0E00232ACE509700399
:1034280075090A850A82850B8312343E1237CBA9A7
:103438000974040230AD1240148512828513832268
:10344800900329E0F5F0E50884900328F07C287DB6
:103458000322F005088518828519832274EC121955
:103468004374FE1218D38A088B098C0E8D0FEA2438
:1034780005FEEB3400FF851882851983AC82AD8385
:103488008E828F8312355D1207038A0A8B0BEE2416
:1034980018122CE0EA450B700302352E1236A050A4
:1034A8003285188285198312355D1208118A108BAE
:1034B80011EA4511606B7912AC0AAD0B850882855B
:1034C800098312355D851082851183121941E9F54A
:1034D8000A7058E4F50AF50B780A121B568E828F8B
:1034E80083A3A3E0F50A780A121B56EE24031237C9
:1034F800AF780A121B568E828F8312356712082303
:1035080074061218E9E9F50A7021850C82850D8385
:10351800E0701F85088285098312355D12048D804D
:1035280011750A0E8009750A018004E50A60031204
:1035380037BE850C82850D83E0600479008002A97E
:103548000A74021218E97F0C021A157C287D03857B
:103558000A82850B8312356122E0FAA3E0FB22E0A0
:10356800FCA3E0FD8508828509831235612274EE8B
:1035780012194374FE1218D38A088B098C0C8D0D0E
:10358800EA2405FEEB3400FF750E008518828519C4
:1035980083AC82AD838E828F8312355D1207038AD6
:1035A8000A8B0BEA450B700302368C1236A0503595
:1035B80085188285198312355D1208118A0E8B0FC2
:1035C800EA450F605E7912AC0AAD0B850882850961
:1035D8008312355D850E82850F83121941E9F50E38
:1035E800600302368F8508828509831238A6AA0AE5
:1035F800FB1208058A108B11A810A911E849701E42
:103608007AFF7BFF1208058A108B11A810A911E810
:1036180049606C88828983E50AF0A3E50BF0750A96
:10362800008007750E0E805F050A90030EE0FAE52C
:103638000AC39A504AE50A75F017A4FAABF08882D3
:103648008983A3A3E02AFAA3E03BFB8A828B831237
:1036580037B8EC4D70D2750A17750B00780A121B33
:1036680056EEFCEFFD12112F74021218E9EEFCEF72
:10367800FD85088285098312355D120493801475CF
:103688000E098003750E0112400C850C82850D838E
:103698001237CBA90E0231F7E5082402F508E5092F
:1036A8003400F5098A828B83A3A3A3E0A2E52274E0
:1036B800041218E97F0A021A1574EC1219438C10C7
:1036C8008D11EA2405F50CEB122CE3750F00EA24A2
:1036D80002F50AEB1237B2850A82F58312355D12BC
:1036E80008058A088B09EA450970030237A4750E94
:1036F800008071850C82850D83E06401704F8E8295
:103708008F83A3A3121B6D8E828F83A3A3A3A3E031
:10371800F5127513007812121B56EE2405F512EFF8
:103728003400F5137812121B5612355712082374F9
:10373800061218E9E9F50F6014850C82850D83E4FB
:10374800F012400C8510828511831237CB7C177DCF
:10375800007900EEFAEFFB1211478E828F83E4F0B6
:10376800A3F0050E90030EE0F8E50EC398501EE591
:103778000E75F017A4F8A9F0850882850983A3A31C
:103788001240391237B8EC4D60030236FB850882C7
:1037980085098374FFF0A3F0E50F70061235571200
:1037A8000499A90F02354EF50AEF3400F50B22A350
:1037B800E0FCA3E0FD228E828F83124014850E82E6
:1037C800850F83E8F0A3E9F022C082C08390030A42
:1037D800E06A7003A3E06B70067A0A7B0380047AC0
:1037E800007B00022ABEC082C08378008C828D8351
:1037F800E06A7003A3E06B7010E875F003A4F8A901
:10380800F0EC28FAED39FB8015088C828D83A3A390
:10381800A3E06A7003A3E06B60DF7A007B00022AF2
:10382800BE74F61219431207CF8A828B83E582454C
:103838008370067A007B008007A3A3A3A312355DDB
:10384800023EBD74F2121943E9FE740E12191F12DA
:1038580038A6741012191F123D1E8C828D83E064E5
:10386800027036A312401AF50CA3E0F9A80C7402F2
:103878006870037429697021750C02750D00780C45
:10388800121B567808121B56780A121B56EEF912AC
:10389800084774061218E980027901023F41E0F5F1
:1038A8000AA3E0F50B2274E812194374FB1218D32B
:1038B800E9851882851983F08A168B17ECFEEDFFCF
:1038C800751000741D12191F124010741D12191F53
:1038D8001237CB8E828F83A3A3A3E0A2E4502D746A
:1038E8001D12191F12355D1208118A828B83E58219
:1038F80045837003023CEF790AEEFCEFFDAA16AB94
:1039080017121941E9F5106003023CF2741F1219ED
:103918001F123D1E742112191F1238A67423121982
:103928001FE0F50EA3E0F50F8E828F83E06402603E
:1039380003023C9DA3124010850882850983A38554
:103948008212858313EE2406122CE088828983E094
:10395800FAA3E0F9EA2400F514E439F5157814120D
:103968001BE0010000280128923907000228573A75
:103978000328C43900298E3B0129B93B02295A3B47
:1039880003298E3B0429383C9D3CE50E450F600316
:10399800023C98850C82850D83123D13FAE9FB8A57
:1039A800828B83E0850A82850B83123D49121B5660
:1039B8008A828B83A3E0FCA3E0023C22E50E450F3C
:1039C8006003023C98850A82850B837401F0123DDE
:1039D80026850882850983F07C007D008E828F838E
:1039E800A3A3A3A3E02401FAA3E03400FB12070376
:1039F800EA4B60418A828B83E02402F8850A82853B
:103A08000B83E028F0EA2404F8EB3400F988828973
:103A180083E0851282851383123D5B123D49121B98
:103A2800568A828B831237B7E5082403FAE50934EE
:103A380000FB023C27850A82850B83E02404F07C86
:103A4800047D007900AA12AB13121147023CF2E57B
:103A58000E450F6003023C98123D26FEA3E0FF8549
:103A68000A82850B837404F0EE850882850983F049
:103A7800EF851282851383F0740312191FAC82AD8F
:103A880083EEFAEFFB1207038A0C8B0DEA450D70E3
:103A980003023B3B8A828B83A3A31229CE740112B3
:103AA800191F85820E85830F780E121B5674051216
:103AB800191F121B6D7CFF7DFF1207097404121871
:103AC800E98B0FEA450F7033850C82850D83123C14
:103AD800FE121B56850C82850D83A3121B6D7C027A
:103AE8007D007A647B8212053574041218E9E97046
:103AF8000A740112191F74FFF0A3F08E828F83E0FD
:103B080064027039750C02750D00780C121B568E04
:103B1800828F831237B7E5082404FAE5093400FBDD
:103B280012112F74021218E9850A82850B83E0248A
:103B3800028009740112191FEEF0A3EFF07401124C
:103B4800191F123D0FF0740112191FA3123D07022D
:103B58003C92E50E450F6003023C98850C82850D6A
:103B6800831237B8AA16AB1712083B850A82850B51
:103B7800837402F0EA850882850983F085128285BC
:103B88001383EB023C95E50E450F6003023C981247
:103B98003D26F8A3E0F9850A82850B837402F0E8D4
:103BA800850882850983F0E9851282851383023CA2
:103BB80095850C82850D8312355D121129EAFC8CDE
:103BC80082A882C3950EE4950F405FE8650E7002E7
:103BD800E50F70047C008022851882851983E0FA3D
:103BE800E50E2AFAE50F3400FBC3EA98EB9400507F
:103BF80003E08005E50ECCC39CFCEC850A82850BAE
:103C080083F08C0A750B00780A121B56850C828586
:103C18000D83E0250EFCA3E0350FFDAA08AB0912C1
:103C2800112F74021218E9023CF2751007023CF2D7
:103C3800E50E450F705A850C82850D83124010855C
:103C48000A82850B8374071229DA123D071229DAD2
:103C5800A3E0851282851383F0E82402FAE9340090
:103C6800FB8A828B83123D07123D36123D0FA31249
:103C78003D3F123D18F0E82405F8E93400F9888240
:103C88008983123D18A3123D5BA3A3A3A3F0805A16
:103C980075100B8055741D12191F12355D1207CF50
:103CA8008A828B83E5824583603D124010880C89A7
:103CB8000DE8450D6031780E121B56780A121B5616
:103CC8007808121B56740612191FE0F9EEFCEFFD76
:103CD800AA16AB17850C82850D831219417406123A
:103CE80018E9E9F510800375100EA910740512186B
:103CF800E97F10021A15E0F50E750F00780E22E024
:103D080085088285098322123D6522124014E82223
:103D1800123D65A3A322E0F508A3E0F50922850C6E
:103D280082850D83E0F8A3E0F5838882E022A3A3CF
:103D3800F08A828B83A322F088828983A3A3A3A31A
:103D480022F08A828B83123D5222E0F50A750B001D
:103D5800780A22F088828983A3123D6522E08508CB
:103D680082850983A3A32274EE12194374FE1218E4
:103D7800D38A0A8B0BECFAEDFB741412191FE0F5C9
:103D880010A3E0F511741612191FE0FE7418121929
:103D98001FE0F50EA3E0F50F851882851983AC8224
:103DA800AD831207038A0C8B0DEA450D604985180F
:103DB8008285198312355D1207CF8A828B83E5824B
:103DC8004583602FA3A3123D1EE5084509602478AA
:103DD8000E121B567810121B56EEF9AC0CAD0DAA3C
:103DE8000AAB0B85088285098312194174041218DD
:103DF800E98006790E800279010231F774F612190A
:103E08004374FE1218D3740C12191F123D1385182F
:103E180082851983F0740112191FE9F0E4F508F599
:103E2800097808121B567508027808121B56740484
:103E380012191F8582088583097808121B561208F3
:103E48002374061218E974021218E9806874F712CC
:103E58001943EAFEEBFF89087C417D0312083BEA1F
:103E68005402600BA908EEFAEFFB1206F7800279FC
:103E7800010228D674F612194374FF6A700374FF9E
:103E88006B70168C828D83123EC2E4F08C828D8317
:103E9800A3A3A3123EC2A3801812080B8A088B0999
:103EA800A808A909E849600D8882898374FF122946
:103EB800D8A3A3E4F07F02021A1574FFF0A3F08CD4
:103EC800828D83A3A32274F612194312080B8A82E7
:103ED8008B83E58245836006A3A3E0FA80027A001B
:103EE8007B0080D174F21219438A088B09ECFEED2D
:103EF800FF740E12191FE0F50A12080B8A0C8B0DBD
:103F0800A80CA90DE8497026EEFCEFFD7AFF7BFFAF
:103F180012080B8A0C8B0DA80CA90DE849700479BE
:103F280011801688828983E508F0A3E509F0888264
:103F38008983A3A3E50AF079007F06021A1574EEB7
:103F4800121943EAFEEBFF8C088D09890C741412D0
:103F5800191F124010741612191F12355D750D00C5
:103F6800E84960030240047402650C6003023FFFE5
:103F7800741212191F12401AFCA3E0F9EC2400F580
:103F88000EE439F50FEAF4F8EBF4F9EC58F8E50F1C
:103F980059F9E849705CE5082406F8ED3400F98819
:103FA8000A890B8882F58312402512083B8A108BF8
:103FB80011E50E65107004E50F65116042780E1268
:103FC8001B56850A82850B8312402512084174020C
:103FD8001218E9E9F50D7027780E121B568508822C
:103FE800850983A3A312402312085374021218E907
:103FF800800D750D808008750D0D8003750D0BA95A
:104008000D0236BC8E828F8312401422E0F8A3E0A2
:10401800F92212401488828983E022A3A3E0FCA33A
:10402800E0FDEEFAEFFB223400F50D850C82F583F6
:1040380022E028FEA3E039FF8E828F832274F212D9
:104048001943EAFEEBFF890B7401650B600E7402DD
:10405800650B706A7901120A21E97062EEFAEFFBCA
:104068001208058A088B09EA45096047750A008025
:104078000B7C177D007900121147050A90030EE0AA
:10408800F8E50AC3985021E50A75F017A4F8A9F0D5
:10409800850882850983A3A3E028FAA3E039FB8A6F
:1040A800828B83122AC570C985088285098374FFAB
:1040B800F0A3F07C417D03EEFAEFFB120835023FD6
:1040C8004174F21219438A088B09ECFEEDFF740E55
:1040D80012191F1238A6900AD7E0F4603D7A097BBE
:1040E80000121153EA4B60328A828B8374B1F0A3B9
:1040F800E4123D38A3123D36A3E508F0A3E5091202
:104108004125EEF0A3EF124125A3A3E50AF0A3E5AC
:104118000BF0900AD7E0F912115F023F41F08A8252
:104128008B83A3A3A3A3A322C082C08390619074AE
:1041380004F0A37448F0A37402F09061807440F016
:104148009061BC7403F09061877419F09062657493
:104158001BF0906249E0C3941390619C400A740973
:10416800F090606674018007740DF0906066E4F06A
:1041780090619A7433F0A37455F09061A0743AF08A
:10418800900567E064017009C2919003CE7467805E
:10419800059003CE7461F0902892E493906186F0C4
:1041A80090288CE493F46027E493540FF890618589
:1041B800E0686012E5C654804449F5C6E59E547F20
:1041C800644970F8E8F053C680E59E547F70FA7928
:1041D80005120D87024382C082C083E5A8F853A860
:1041E8007E906181E4F0A3F0A3F0C2BA539AFEC2B4
:1041F80089759B00C2C275E90075910075BF00758D
:10420800A91175B905906181F0A374C0F0A3E4F019
:10421800D2BA439A0174805842A8024382C082C02D
:104228008374F81218D39003CCE0F8A3E0F9E849B6
:1042380070030243539003CCE0544060237908850F
:104248001882851983AA82AB83120BF5851882859B
:104258001983AA82AB831208D19003CCE054BFF033
:10426800E054806010790C7A8D7B05120BF5900371
:10427800CCE0547FF0E0A2E0503190619A7433F0C2
:10428800A37455F09061A0743AF0900567E064015A
:104298007009C2919003CE746780059003CE746153
:1042A800F01208D79003CCE054FEF0E054026031DD
:1042B80090619A743FF0A3745AF09061A0747FF0F3
:1042C800900567E064017009D2919003CE74718003
:1042D800059003CE746AF01208D79003CCE054FD21
:1042E800F0E054046013902890E493906186F012F3
:1042F80008DD9003CCE054FBF0E0540860139028EC
:1043080091E493906186F01208DD9003CCE054F7B5
:10431800F0E054106013902892E493906186F012B4
:1043280008DD9003CCE054EFF0E05420600A120856
:10433800DD9003CCE054DFF0A3E05401600D120BD4
:104348001D1208E39003CDE054FEF074081218E93A
:10435800024382C082C083E9600814600A14600CBA
:10436800801390289080089028918003902892E4E8
:1043780093906186F08003F0A3F0D083D08202018D
:104388001F74EC12194374F41218D3851882851916
:1043980083AC82AD837583817582FC74041217E641
:1043A80090289093F46003024515907808E0C39430
:1043B8000250030244F5740412191FAC82AD8375D0
:1043C80083817582AE74081217E685188285198371
:1043D800858212858313740412191FAC82AD83750C
:1043E8000EFF750FFF7FFF7E00750C48750D7880F6
:1043F8001574086E700302448974096E70030244D0
:1044080089740A6E607B850C82850D837808121783
:104418008B8C828D83A909E50AC9F88810741878ED
:10442800081216B9E5104508F8C3E098A3E0998585
:104438000C82850D83780812178B40188C828D8327
:10444800741878081216B9E5104508F8E0C398F80A
:10445800A3E0801C741878081216B9E5104508FA0C
:10446800E9FB8C828D83E0F8A3E0F9EAC398F8EBC6
:1044780099F9C3E8950EE9950F5006880E890FEE55
:10448800FF0EE50C2404F50CE50D3400F50DEEC324
:10449800941350030243F974FF650E700474FF65AA
:1044A8000F60238F08740278081218C07448250812
:1044B800F58274783509F583780812178B8512828E
:1044C800851383E508F0EC2402FCED3400FD851229
:1044D80082851383A3858212858313740C12191F96
:1044E800E5826C7003E5836D60030243E77508019C
:1044F8007509007808121B56740212191FAC82AD98
:10450800837A247B0A1210BD74021218E9740C1203
:1045180018E97F0C021A15C082C0839061AE7468D6
:10452800F0A3746AF090624574FBF0A304F053F4AE
:10453800FD43FE029005677401F09061A0E0643AC3
:1045480090619A70237433F0A37455F09061A0744D
:104558003AF0740164017009C2919003CE746780C7
:10456800289003CE74618021743FF0A3745AF090B0
:1045780061A0747FF0740164017009D2919003CE38
:10458800747180059003CE746A0243817F08021A11
:1045980015C082C083900519E06401700A90051E59
:1045A800E06004790C80027900024382C082C083F3
:1045B80075E1F190051CE0605B14600914605F14FC
:1045C800605714705E120B2F900512E0F97A137B76
:1045D80005120D097AD67BBE7C897D8E120D3F7A35
:1045E800557B557C557D00120D1590051DE0F9127F
:1045F8000D217901120D7B900510E0F8A3E0C82485
:1046080016F582E83400F5837447F0A3740BF0794B
:1046180000024382120B3580AF120B3B80AA120BAB
:104628004180A5791280EA74F012194375D90D906A
:1046380004FDE0A2E0E4331313F8900512E0C4335C
:104648003354C0484401F5D97810790588828983A4
:10465800A3A3A3E0F5D988828983A3A882A983E8C4
:1046680064167003E9640570E378FD79048882892B
:1046780083A3E0F5D988828983A3A882A983E86403
:10468800037003E9640570E575E1959004FDE0F9B0
:104698007AFE7B04120D0F900AF974DBF0A3740AFA
:1046A800F0A37443F0A3740CF0A37443F0A3740C48
:1046B800F0A37443F0A3740CF0A374E1F0A3740A9C
:1046C800F0A37443F0A3740CF0A374F9F0A3740A74
:1046D800F0900B077443F0A3740CF0A37443F0A399
:1046E800740CF0A37443F0A3740CF0A37443F0A308
:1046F800740CF0A37443F0A3740CF0A37443F0A3F8
:10470800740CF090051CE064019005107012E0F83C
:10471800A3E0F5838882A3A37508007509088010B3
:10472800E0F8A3E0F5838882A3A37508047509005F
:10473800750A00750B007808121704750CFF750DC3
:10474800FF750EFF750F007808790C121752900547
:1047580010E0F8A3E0C8240EF582E83400F5837869
:104768000812179A900510E0F8A3E0C82414F582FF
:10477800E83400F5837413F09003CA7402F002451C
:104788009474F7121943900522E02407F5D990058F
:1047980012E0C4333354C0F5D9781079058882897A
:1047A80083A3A3A3E0F5D988828983A3A882A983D8
:1047B800E864167003E9640570E3900522E0601F61
:1047C80078107905FAE82413F582E93400F583E0D6
:1047D800F5D988828983A3A882A9831AEA70E6900A
:1047E8000542E02407F5D9900512E0C4333354C0DC
:1047F8004404F5D97810790588828983A3A3A3E0B6
:10480800F5D988828983A3A882A983E864167003EE
:10481800E9640570E3900542E0601F78107905FAB5
:10482800E82433F582E93400F583E0F5D9888289F4
:1048380083A3A882A9831AEA70E675E195900AF91C
:1048480074E7F0A3740AF0A37443F0A3740CF0A304
:104858007443F0A3740CF0A37443F0A3740CF0A396
:1048680074E1F0A3740AF0A37443F0A3740CF0A3EA
:1048780074F9F0A3740AF0900B077443F0A3740C56
:10488800F0A37443F0A3740CF0A37443F0A3740C66
:10489800F0A37443F0A3740CF0A37443F0A3740C56
:1048A800F0A37443F0A3740CF0900510E0F8A3E0B3
:1048B800C8240EF582E83400F58374FFF0A3F0A352
:1048C800F0A3F0900510E0F8A3E0C82414F582E8FE
:1048D8003400F5837412F09003CA7401F0FF021AD1
:1048E8001574F7121943900522E02407F5D99005AD
:1048F80012E0C4333354C04402F5D97810790588DE
:10490800828983A3A3A3E0F5D988828983A3A88297
:10491800A983E864167003E9640570E3900522E052
:10492800601F78107905FAE82413F582E93400F558
:1049380083E0F5D988828983A3A882A9831AEA70BB
:10494800E675E195900AF974F3F0A3740AF0A3747C
:10495800F3F0A3740AF0A374F3F0A3740AF0A37439
:10496800F3F0A3740AF0A374F3F0A3740AF0A37429
:10497800F3F0A3740AF0A374F9F0A3740AF0900B8F
:10498800077443F0A3740CF0A37443F0A3740CF001
:10499800A37443F0A3740CF0A37443F0A3740CF055
:1049A800A37443F0A3740CF0A37443F0A3740CF045
:1049B800900510E0F8A3E0C8240EF582E83400F56D
:1049C8008374FFF0A3F0A3F0A3F0900510E0F8A320
:1049D800E0C82414F582E83400F5837414F09003D9
:1049E800CA7404F0024CB074F7121943900522E01F
:1049F8002407F5D9900512E0C4333354C04406F5B2
:104A0800D97810790588828983A3A3A3E0F5D9888A
:104A1800828983A3A882A983E864167003E96405E0
:104A280070E3900522E0601F78107905FAE82413F6
:104A3800F582E93400F583E0F5D988828983A3A853
:104A480082A9831AEA70E6900542E02407F5D99016
:104A58000512E0C4333354C04404F5D978107905FD
:104A680088828983A3A3A3E0F5D988828983A3A830
:104A780082A983E864167003E9640570E39005422F
:104A8800E0601F78107905FAE82433F582E93400EC
:104A9800F583E0F5D988828983A3A882A9831AEAD5
:104AA80070E675E195900AF974EDF0A3740AF0A325
:104AB8007443F0A3740CF0A37443F0A3740CF0A334
:104AC8007443F0A3740CF0A37443F0A3740CF0A324
:104AD8007443F0A3740CF0A374F9F0A3740AF09073
:104AE8000B077443F0A3740CF0A37443F0A3740C85
:104AF800F0A37443F0A3740CF0A37443F0A3740CF4
:104B0800F0A37443F0A3740CF0A37443F0A3740CE3
:104B1800F0900510E0F8A3E0C8240EF582E8340010
:104B2800F58374FFF0A3F0A3F0A3F0900510E0F86C
:104B3800A3E0C82414F582E83400F5837415F090D6
:104B480003CA7403F0024CB0C082C083900510E021
:104B5800F8A3E0C82406F582E83400F583E40243AC
:104B68007F74F71219439003F8E0F875F003A4C8AE
:104B7800AAF02AF974FA28F8740339F9E82405FA2E
:104B8800E93400FB8A828B83E0FCA3E0FD888289FC
:104B980083A3A3A3A3A3A3A3A3A3ECF0A3EDF088EB
:104BA800828983A3A3A3A3A3A3A3E024FFF8A3E07C
:104BB80034FFF98A828B83E8F0A3E9F0024CB074E1
:104BC800F7121943EAFEEBFF9061D0E06003024C54
:104BD800A475D90E75D90375D904EE248BF582EF27
:104BE8003400F583E5822408F8E5833400F9E0F51C
:104BF800D9A3E865827003E9658370F2EE2483F532
:104C080082EF3400F583E5822404F8E5833400F963
:104C1800E0F5D9A3E865827003E9658370F275E170
:104C2800957908EE248BFAEF3400FB120BE979042E
:104C3800EE2483FAEF3400FB120BE97C00EEF8EF68
:104C4800F9ECFAC3E49AFA95E0FBEE2AFAEF3BFB9B
:104C5800EA248AF582EB3400F583E0C0E0E824AA70
:104C6800F582E93400F583D0E0F00C88828983A3CB
:104C7800A882A983ECC3940840C7EE246FF582EF9D
:104C88003400F583E0F8A3E0F9EE2471F582EF34FF
:104C980000F583E8F0A3E9F0790180027900800843
:104CA800F0EEA2E092AF79007F01021A15C082C02F
:104CB8008375D90275D90375D90575E195EA246F0D
:104CC800F582EB3400F583E0F8A3E0F9EA2471F506
:104CD80082EB3400F583E8F0A3E9F079010243821E
:104CE80074F6121943EAFEEBFF90056D7406F07531
:104CF800086D7509057808121B567C017903120C9A
:104D08003774021218E975D90675D90375826D755D
:104D18008305E0F5D9A3E58264727004E583640530
:104D280070F075E1959003CAE06408701EEE246F78
:104D3800F582EF3400F583E0F8A3E0F9EE2471F58D
:104D480082EF3400F583E8F0A3E9F07901024FB669
:104D580074F6121943EAFEEBFF9061D0E0706678B2
:104D68000190056D740BF09003CAE0640770197523
:104D7800086D7509057808121B567C017903120C19
:104D88003774021218E97805740128F5D975D90322
:104D980075826D758305E8FAE0F5D9A31AEA70F80B
:104DA80075E195EE246FF582EF3400F583E0F8A302
:104DB800E0F9EE2471F582EF3400F583E8F0A3E919
:104DC800F0790180027900024FB674F7121943EAAC
:104DD800FEEBFF75D90375D90375D90DEE24DDF502
:104DE80082EF3400F583E0F5D975E1957904120D69
:104DF80045EE246FF582EF3400F583E0F8A3E0F97F
:104E0800EE2471F582EF3400F583E8F0A3E9F07938
:104E180001024CB074F6121943EAFEEBFF9061D020
:104E2800E0F87480C398FAEE2482F582EF3400F536
:104E380083E06004780480027800E8240BF8EAC371
:104E4800985003024EE17D0990056DEDF0EE24E2E5
:104E5800F8EF3400F97A6E7B057C0888828983E054
:104E68008A828B83F088828983A3A882A9838A8215
:104E78008B83A3AA82AB831CEC70E0EE2482F582BC
:104E8800EF3400F583E0601D75086D750905780835
:104E9800121B567C097903EEFAEFFB120C377402E9
:104EA8001218E97D0D74012DF5D975D90375826D38
:104EB8007583058D08E0F5D9A31508E50870F67522
:104EC800E1957904120D45EE241DF582EF3400F5C5
:104ED80083E4F0A3F0790180027900024FB674F6FA
:104EE800121943EAFEEBFF9061D0E0F87480C39892
:104EF800FAEE2482F582EF3400F583E0600478044A
:104F080080027800E82408F8EAC3985003024FB4F6
:104F1800780690056D740CF09003E7E090056EF04C
:104F28009003E8E090056FF09003E9E0900570F0D9
:104F38009003EAE0900571F09003EBE0900572F0C1
:104F4800EE2482F582EF3400F583E0601B75086D6E
:104F58007509057808121B567C067903EEFA120CBF
:104F68003774021218E9780A740128F5D975D9033B
:104F780075826D7583058808E0F5D9A31508E508DD
:104F880070F675E1957904120D45EE246FF582EF00
:104F98003400F583E0F8A3E0F9EE2471F582EF34EC
:104FA80000F583E8F0A3E9F07901800279007F0237
:104FB800021A1574F6121943EAFEEBFF9061D0E06D
:104FC800F87480C398FAEE2482F582EF3400F583F2
:104FD800E06004780480027800E82404F8EAC398C2
:104FE8005003025095780290056DE8F0EE24F4F530
:104FF80082EF3400F583E090056EF0EE2482F582AE
:10500800EF3400F583E0601B75086D7509057808B5
:10501800121B567C027903EEFA120C37740212182E
:10502800E97806740128F5D975D90375826D7583F9
:10503800058808E0F5D9A31508E50870F675E19527
:10504800EE2473F582EF3400F583E4F0EE247FF567
:1050580082EF3400F583E4F0EE241DF582EF34008E
:10506800F583E4F0A3F07904120D45EE240DF582E2
:10507800EF3400F583E0F8A3E0F9EE2471F582EF50
:105088003400F583E8F0A3E9F079018002790002A1
:105098004FB674F61219439061D0E0F87480C39843
:1050A800FCEA2482F582EB3400F583E0600478049E
:1050B80080027800E82404F8ECC398405B790290F9
:1050C800056D7407F0EA24F5F582EB3400F583E00A
:1050D80090056EF0EA2482F582EB3400F583E060F7
:1050E8001875086D7509057808121B567C02091297
:1050F8000C3774021218E97906740129F5D975D9A3
:105108000375826D758305E9F8E0F5D9A318E87091
:10511800F875E195790180027900024FB674F512AD
:105128001943E9FCA2AFE433F50AC2AF7D00800160
:105138000DEA246EF582EB3400F583E0F8EDC398B0
:10514800501A8D08EA2508F8EB3400F9E8246AF5C6
:1051580082E93400F583E06C70D68024EA246EF886
:10516800EB3400F9E0FEEA2EFAEB3400FBEA246A9D
:10517800F582EB3400F583ECF088828983E004F053
:10518800E50AA2E092AF7F03021A1574F6121943DA
:10519800A2AFE433FDC2AFEA246EF582EB3400F52A
:1051A80083E014F07C0060368C08EA2508F8EB34BC
:1051B80000F9E8246BF582E93400F583E0C0E0E803
:1051C800246AF582E93400F583D0E0F00CEA246E15
:1051D800F582EB3400F583E0F8ECC39840CAEA2482
:1051E8006DF582EB3400F58374FFF0EA2469F582EB
:1051F800EB3400F583E4F0EDA2E092AF024FB6C0C5
:1052080082C083E5A8F8C2AFEA246AF582EB3400CD
:10521800F583E9F0EA2469F582EB3400F583E4F0DC
:10522800E8A2E7A2E792AF02438274F3121943EAB5
:10523800FEEBFFECFAEDFB8A828B83A3A3A3A3E02A
:10524800541FF0EE2436F582EF3400F583E4F0F5D0
:105258000AEEFCEFFD8A828B83E0C0E0EC245DF56A
:1052680082ED3400F583D0E0F0750B00E50A3333A6
:105278003354F8F50C8A828B83E0F508750900E54C
:105288000B78081218A1E508A2E0502FEE2436F892
:10529800EF3400F988828983E0F508EE2508F508DF
:1052A800EF3400F509E5082438F582E5093400F5FE
:1052B80083E50CF088828983E004F0050B050CE592
:1052C8000BC3940840AF050A8A828B83A3AA82ABDA
:1052D800838C828D83A3AC82AD83E50AC394055089
:1052E8000302525D7F05021A1574F71219439003E1
:1052F800F6E06401700302544F7A009003FCE0600A
:105308000302544F7401F0A3E4F0A3F090045C048A
:10531800F0900461F09003FFE4F0A3F0A3F0A3F091
:1053280090040904F090042FE4F0900412F0A3F024
:10533800A3F0A3F0A3F0A3F0A3F0900479F09004F5
:105348006DF09004627480F0A3E4F0900468F0902B
:1053580004E4F0A3F0A3F0A3F0A3F0A3F0A3F0A358
:10536800F09004EDF090047CF09004CCF0A3F0A34E
:10537800F0A3F0A3F0A3F0A3F0A3F0A3F0A3F090A0
:1053880004D8F09004DAF09004D6F09004F0F0A37A
:10539800F0A3F0A3F0A3F0A3F0A3F0A3F078F679BC
:1053A80003E8246EF582E93400F58374FFF00A8877
:1053B800828983A3A882A983EAC3940440E37AF686
:1053C8007B037804790588828983E0C0E0EA246158
:1053D800F582EB3400F583D0E0F088828983A3A8B6
:1053E80082A9838A828B83A3AA82AB83E86409702B
:1053F80003E9640570D07AF67B0378DD7903888247
:105408008983A3E0C0E0EA24E6F582EB3400F58363
:10541800D0E0F088828983A3A882A9838A828B83BB
:10542800A3AA82AB83E864E57003E9640370CF90B4
:1054380003F6E004F0640170089003FEE09003F8BE
:10544800F07AFA7B0380047A007B00024CB0C082B9
:10545800C0839003FDE4F09003FCF09003F6F0A302
:10546800F0A374FFF075E1F1024382C082C0837833
:105478000079009003FDE0600478FA790388828956
:1054880083A3A3A3A3E0F902438274F6121943EAA3
:10549800FEEBFFEE2463F582EF3400F583E0F8A31A
:1054A800E0F9E8497003025537EE2463F8EF340059
:1054B800F97A007B00A2AFE433F508C2AF8882898D
:1054C80083E0FCA3E0FDEC4D603A88828983E0FA32
:1054D800A3E0FB8A828B83E0FCA3E0FD88828983BA
:1054E800ECF0A3EDF08A828B83E4F0A3F088828944
:1054F80083E0FCA3E0FDEC4D700A88828983A3A3B6
:10550800E4F0A3F0E508A2E092AF1211B990050A01
:10551800E004F090050BE004F0EE2463F582EF342C
:1055280000F583E0F8A3E0F9E84960030254B18E7E
:10553800828F83A3A3A3E0600F8E828F83A3A3A38C
:10554800E4F09003F7E014F09003F6E014F070062E
:105558009003F874FFF08E828F83A3A3E4F0900584
:1055680009E0700D9003F7E0640170057900120DF1
:1055780027EEFAEFFB120C67024FB674F7121943C5
:10558800EAFEEBFF8E828F83A3A3A3A3E0FA7B003E
:10559800120925EEFAEFFB120BB3120C4F024CB0B6
:1055A800C082C08378DD790388828983A3E4F08888
:1055B800828983A3A882A983E864E57003E9640368
:1055C80070E69003DE740102438174F6121943EA0F
:1055D800FEEBFFEC2403F8ED3400F988088909ECA8
:1055E8002407F8ED3400F9E8FCE9FD8C828D83E0AE
:1055F800F8A3E0F9850882850983E0FAA3E0FB12A5
:105608001848EE240DF582EF3400F583E8F0A3E99D
:10561800F08C828D83E0F8A3E0F985088285098300
:10562800E0FAA3E0FB1218488B09EA45096013EE7B
:10563800240DF582EF3400F583E02401F0A3E03473
:1056480000F0024FB674F6121943EAFEEBFFEE249F
:105658002EF582EF3400F583E0FCA3E0FD780079B5
:10566800FAECFAEDFB121848EE246FF582EF3400DD
:10567800F583E8F0A3E9F0780079FAECFAEDFB128B
:1056880018488B09EA45096013EE246FF582EF3458
:1056980000F583E02401F0A3E03400F0024FB67473
:1056A800EC121943EAFEEBFF741412191F78081262
:1056B800178B120CEB8A0C8B0D8C0E8D0F7510024C
:1056C800751100751200751300780C79101216F117
:1056D8007510FF7511FF7512FF780C7910121752AB
:1056E800780C121B528E828F83E0F8A3E0F5838832
:1056F80082A3A31217A912256174041218E9E9609C
:105708000302580B8E828F83E02402F8A3E0340052
:10571800F9E8FAE9FB8A828B8378081217178A82DC
:105728008B837508FF7509FF750AFF750B007808EC
:10573800121778EE240BF582EF3400F583C082C08F
:10574800838E828F83A3A3A3A3A3E02401F8A3E0FD
:105758003400F9D083D082E0687003A3E069700553
:10576800790102580D8E828F83A3A3A3A3A3A3A3B9
:10577800E02401F0A3E03400F0EE2473F582EF3466
:1057880000F583E064017036EE2474F582EF34008E
:10579800F583E0F8A3E0F98E828F83A3A3A3A3A3E4
:1057A800A3A3E0687003A3E0697013EE2474F58284
:1057B800EF3400F583E02401F0A3E03400F0EE2498
:1057C8007FF582EF3400F583E064017036EE2480C3
:1057D800F582EF3400F583E0F8A3E0F98E828F8339
:1057E800A3A3A3A3A3A3A3E0687003A3E069701312
:1057F800EE2480F582EF3400F583E02401F0A3E085
:105808003400F0790002451A74F6121943E9FEECE7
:10581800FFEA2462F582EB3400F583E0640160035B
:105828000258B99061D0E0F508EA2482F582EB3499
:1058380000F583E060047804800278007480C395E2
:1058480008FC95E0FDEF28F8E43400F9E82402F8B4
:10585800E93400F9EC98ED99A2D265D033404E7442
:105868000A12191FE0F508A3E0F509EA2482F58277
:10587800EB3400F583E060157808121B56EFFCEE58
:10588800F9120C3774021218E974042FFF74012FEF
:10589800F5D98ED9EF600F850882850983F8E0F580
:1058A800D9A318E870F875E1957900800679078022
:1058B8000279FF024FB674F7121943A2AFE433FE20
:1058C800C2AF8A828B83E0F8A3E0F9E8498A828B29
:1058D80083600AA3A3E0F8A3E0F5838882ECF0A331
:1058E800EDF08A828B83A3A3ECF0A3EDF08C828D7C
:1058F80083E4F0A3024CA874F7121943E96021F875
:105908008C828D83E08A828B83F08C828D83A3AC1A
:1059180082AD838A828B83A3AA82AB8318E870E066
:10592800ECFAEDFB024CB074F4121943907803E0E2
:105938006442705590056CE014F0704DC2AF125976
:105948004900782AD0E0F618D0E0F6E59F540770B1
:10595800057509FF800375097FC4C0E07829E6F55D
:105968000808E65509F509740B78081218B1D0E053
:105978002508F8906270E0A2E740F8E8C333906227
:1059880072F0906270E0D2E0F09003F8E0F47003F7
:10599800025D29E0F875F003A4C8AAF02AF974FAA0
:1059A80028FE740339FFEE2401F582EF3401F583F4
:1059B800E0F8A3E0F9E849601EEE2401F582EF342F
:1059C80001F583E0FAA3E0FBEE2400F582EF340151
:1059D800F583E0F91211838E828F83A3A3A3A3A377
:1059E800A3A3E0F8A3E0F98E828F83A3A3A3A3A3C4
:1059F800E8F0A3E9F0906054E09003D1F09060558E
:105A0800E09003D2F0906056E09003D3F090605796
:105A1800E09003D4F0906058E09003D5F09060597E
:105A2800E09003D6F090605AE09003D7F090605B66
:105A3800E09003D8F090605CE0FC9003D9F09060AF
:105A48005DE0FB9003DAF090605EE0FD9003DBF030
:105A580090605FE0FA9003DCF09003D7E08C0825B3
:105A680008F8E43400F98D08E82508F8E93400F965
:105A78008B08E82508F8E93400F98A08E82508FAC7
:105A8800E93400FBEE24F6F582EF3400F583E02AD2
:105A9800F0A3E03BF08C08EE24F8F582EF3400F533
:105AA80083E02508F0A3E03400F0EE24FAF582EF55
:105AB8003400F583E02401F0A3E03400F0EE24FE86
:105AC800F582EF3400F583E0F8A3E0F9E849604295
:105AD800906000E0C333FCE433FDE82CF582E93D37
:105AE800F583E02AF0A3E03BF0906000E0FA900331
:105AF800D9E0FCEAC333FAE433FBE82AF8E93BF9D6
:105B0800E8244AF582E93400F583E02CF0A3E03478
:105B180000F09003D7E070119003DAE0700BA3E077
:105B28007007A3E07003025C268E828F83A3A3A371
